:020000040800F2
:10000000580E00200501000889350008FB2700086C
:1000100069350008E10A0008794300080000000083
:10002000000000000000000000000000C1380008CF
:100030003D0C0008000000003D370008593F000853
:100040001F0100081F0100081F0100081F01000810
:100050001F0100081F0100081F0100081F01000800
:100060001F0100081F0100081F0100081F010008F0
:100070001F0100081F0100081F0100081F010008E0
:100080001F0100081F0100081F0100081F010008D0
:100090001F0100081F0100081F0100081F010008C0
:1000A0001F0100081F0100081F0100081F010008B0
:1000B0001F0100081F0100081F0100081F010008A0
:1000C0001F0100081F0100081F0100081F01000890
:1000D0001F0100081F0100081F0100081F01000880
:1000E0001F0100081F0100081F010008DFF810D0E1
:1000F00000F0FEFB00480047ED4B0008AFF3008026
:10010000580E00200648804706480047FEE7FEE7F5
:10011000FEE7FEE7FEE7FEE7FEE7FEE7FEE7FEE7B7
:10012000D53F0008ED000008202A04DB203A21FA20
:1001300002F00021704721FA02F3D040C2F1200200
:100140009140084319467047D2B201E000F8012BF4
:10015000491EFBD270470022F6E710B513460A4647
:1001600004461946FFF7F0FF204610BDF0B480EAC0
:100170000102D40F4200B2EB410F02D20246084600
:1001800011464A0042D0C30DDDB2C1F3C752AD1AC9
:10019000202D35DAC1F3160141F4000204B15242B8
:1001A000C5F1200602FA06F12A411044B3EBD05FF4
:1001B00023D0C4B1012DA0EBC35009DCF0BC4FF03B
:1001C000004202EAC352DBB200F5000000F0E6BADA
:1001D000400000F1807000EBC350A0F1807040EA55
:1001E000D170490009E0490841EAC071A0EBC35051
:1001F00000F50000400800EBC350F0BC00F0C5BAA9
:100200006142012202EB4101001BF6E7F0BC70479E
:1002100081F00041AAE780F00040A7E780EA0102F0
:1002200010B502F00043400022D04A001FD0010E5A
:1002300001EB1261C0F35600C2F3560240F4000015
:1002400042F40002A0FB022000047F39140400D015
:10025000401C50EA124001D44000491EC2B20C06B4
:1002600004EBD010401C4008802A02D003E000209C
:1002700010BD20F00100002900DA0020184310BD55
:1002800030B480EA010202F0004530F0004221F073
:10029000004013D090B1C30DD40DC2F31601C0F3CA
:1002A0001600E41A41F4000140F400027D3491424A
:1002B00001D3641C00E04900002C02DA30BC0020AD
:1002C00070474FF400000023914201D3891A034381
:1002D00040084FEA4101F7D151B1914202D14FF0AC
:1002E000004105E002D24FF0010101E06FF0010191
:1002F00003EBC450284430BC00F047BA420005D09C
:10030000C0F3C7525242914201DC0020704700EB1B
:10031000C15070472DE9FE4F804681EA0300C00FAF
:100320000C46009021F0004123F00045B8EB02009C
:10033000A94105D24046214690461C460B4602463E
:1003400023F00040104347D0270DC7F30A00C3F342
:100350000A510290401A019040286BDAC3F313004F
:1003600040F4801B0098924620B10023D2EB030A90
:1003700063EB0B0B01985946C0F14002504600F068
:10038000E3F906460D4650465946019A00F0EBF94E
:1003900010EB08006141002487EA115284EAE773F8
:1003A0001A4340D0009A62B3019A012A4FEA0752D9
:1003B00015DC001B61EB02014FF0004202EA07521C
:1003C000CDE90042001C41F5801132462B4600F079
:1003D00040FA03B0BDE8F08F40462146F9E7001B24
:1003E00061EB0201001C41F5801300185B412018ED
:1003F000A2F5001747EB030140EAD570B6196D412D
:1004000011E06D084FEA360645EAC0754FEA07521B
:10041000001B61EB0201001C41F5801149084FEA05
:1004200030000019514132462B4603B0BDE8F04F71
:1004300000F000BA0098012240000023D0EB020235
:1004400063EBE073009821464FEAE074B8EB0000DC
:1004500061EB0401E9E783F000435BE781F00041D1
:1004600058E72DE9FE4F81EA030404F0004421F02F
:10047000004100944FF0000B23F0004350EA0104C8
:100480005ED052EA03045BD0C3F30A54C1F30A55A9
:100490002C44A4F2F3340194A0FB0254C1F31301E1
:1004A00041F48011C3F3130343F4801301FB0244AE
:1004B00000FB034E840A970A44EA815447EA8357B3
:1004C000A4FB076802958D0A05FB07854FEA932C6C
:1004D00004FB0C542705029D4FEA065847EA1637DD
:1004E000B5EB08056EEB070C870E920E47EA8117F5
:1004F00042EA8312A7FB0201B6EB0B0164EB000496
:100500002B0D43EA0C335E1844EB1C50DA4651467F
:10051000E7FB0201C5F313044FEA0B3343EA14531C
:100520004FEA0432019C43EA0603A4F10C0402944E
:10053000009CCDE900B400F08CF903B0BDE8F08F69
:1005400000200146F9E72DE9F04D81EA030404F0AB
:10055000004B21F0004514464FF0000A23F0004103
:1005600050EA050220D054EA01021DD0C5F30A5713
:100570000246C5F31303C1F31300C1F30A5640F456
:10058000801543F48013A7EB0608101BD64608F22B
:10059000FD3873EB050002D308F1010801E0921861
:1005A0005B41B8F1000F03DA00200146BDE8F08D91
:1005B00000204FF48011064684460EE0171B73EBB3
:1005C000050705D3121B63EB050306434CEA010C38
:1005D00049084FEA300092185B4150EA0107EDD11B
:1005E00052EA030012D082EA040083EA05010843BC
:1005F00005D0101BAB4106D20122002306E00022E9
:100600004FF0004302E06FF0010253101AEB0600B6
:100610004CEB085110EB0A0041EB0B01BDE8F04D2B
:1006200000F008B970B521F0004303430CD0C1F3CA
:100630000A550024D5EB040564EB0403D617AD1A64
:10064000B34102DB0020014670BD201841EB02518E
:1006500070BDC10F80EAE0700844CA0796230021EC
:1006600000F09CB896230022114600F097B80EB512
:10067000C10F80EAE0700844CA07002140F233430A
:100680008DE80E000A460B4600F0E3F803B000BD0B
:1006900000F0004220F00040C10DC0F3160040F40D
:1006A00000007F2901DA00207047962903DCC1F1A0
:1006B0009601C84001E096398840002AF4D04042B3
:1006C000704700F0004230F000400AD0C10D01F543
:1006D0006071C0F3160042EA0151C208400711439D
:1006E000704700200146704701F0004330B421F00C
:1006F000004150EA010206D00A0DA2F56072C1F372
:100700001301002A02DC30BC00207047440F44EA89
:10071000C104C100E01830BC00EBC25000F035B895
:10072000002801DBC0F10040002901DBC1F10041DC
:1007300081427047002801DBC0F10040002901DB45
:10074000C1F1004188427047202A04DB203A00FAB8
:1007500002F1002070479140C2F1200320FA03F318
:10076000194390407047202A06DBCB17203A41FA04
:1007700002F043EAE07306E041FA02F3D040C2F12E
:10078000200291400843194670470029A8BF7047CE
:10079000401C490008BF20F00100704710B4B0FAB7
:1007A00080FC00FA0CF050EA010404BF10BC704752
:1007B00049B1CCF1200421FA04F411FA0CF118BF6C
:1007C000012121430843A3EB0C01CB1D4FEA00613B
:1007D0004FEA102042BF002010BC704700EBC3500E
:1007E00010440029A4BF10BC7047401C490008BF3A
:1007F00020F0010010BC704710B541000CD0C0F3D0
:10080000C751962908DC7E2909DC06DB410204D0A9
:1008100000F0004040F07E5010BD002010BDC1F13E
:100820009604C4F1200100FA01F1E040FFF7ADFFAA
:10083000A04010BD10B5141E73F1000408DA401C6E
:1008400041F1000192185B411A4301D120F00100EF
:1008500010BD2DE9F04D92469B4611B1B1FA81F2DF
:1008600002E0B0FA80F220329046FFF76DFF0446B6
:100870000F4640EA0A0041EA0B0153465A46084334
:1008800013D0114653EA010019D0C8F14002504676
:10089000FFF74AFC05460E46504659464246FFF7CA
:1008A00053FF084305D0012004E020463946BDE847
:1008B000F08D0020054346EAE0762C4337430A9842
:1008C0006305E40AA0EB08000022FD0A44EA47544D
:1008D0000A3002D500200146E9E7010510196941F7
:1008E000DDE9084500196941BDE8F04DA2E70000C7
:1008F000064C074D06E0E06840F0010394E807006D
:1009000098471034AC42F6D3FFF7F4FB505100087F
:10091000705100082DE9F04D00231A461B1A8A4138
:1009200003DB00200146BDE8F08DC1F30A52C1F39C
:10093000130141F480154FF0000BD10702D10018CC
:100940006D41521E0027044640F2FF11384601EB6C
:10095000620A3E468046024600204FF48011FFF7AF
:10096000E3FBC2197141BB1846EB0100B4EB030C69
:1009700075EB000C04D3E41A65EB000517460E4630
:10098000241908F101006D4180463428E3DDF9198E
:1009900046EB0600091BA84103D24FF0FF32134675
:1009A00001E0002213461BEB070046EB0A51BDE8AD
:1009B000F04DFFF73FBF70B58C1810F8015B15F0D4
:1009C000070301D110F8013B2A1106D110F8012BC1
:1009D00003E010F8016B01F8016B5B1EF9D12B07E6
:1009E00005D40023521E0DD401F8013BFAE710F89C
:1009F000013BCB1A921C03E013F8015B01F8015B89
:100A0000521EF9D5A142D8D3002070BD70B504465E
:100A100000688168C943C90717D1816821F00101C5
:100A2000816000F0A5FC05460AE000BF00F0A0FCD4
:100A3000401B022804D920688068C043C00706D044
:100A400020688068C043C007F0D0002070BDA06A55
:100A500040F01000A062E06A40F00100E062012076
:100A600070BD0000F8B50026044600960068816855
:100A7000C943C9072DD0816841F001018160164842
:100A800016490068B0FBF1F000E0401E009000281D
:100A9000FBD100F06DFC054616E000BF00F068FCDD
:100AA000401B022810D920688068C043C0070BD0C3
:100AB000A06A40F01000A062E06A40F00100E0622D
:100AC00084F824600120F8BD20688068C043C00716
:100AD000E4D10020F8BD00001805002040420F00BE
:100AE000FEE7000010B51E4C1B4A1C49204604F0CE
:100AF0005DF9194A1B491832204604F057F9164A85
:100B000019493032204604F051F9134A1749483246
:100B1000204604F04BF9104A15496032204604F093
:100B200045F90D4A13497832204604F03FF90A4A44
:100B300011499032204604F039F9074A0F49A8328A
:100B4000204604F033F9044A2046C032E102BDE8F1
:100B5000104004F02BB90000100600200000A04255
:100B6000000048430000704200004C420000F04189
:100B70000000A04100007041000020410000A040A2
:100B80002DE9F04129490C22A1F1080002F0CCFE28
:100B9000264C083CB4F90000FFF75BFD244A02F143
:100BA000900102F083FAA060B4F90200FFF751FD52
:100BB0001F4A02F1A80102F079FAE060B4F90400DA
:100BC000FFF747FD1A4A02F1C00102F06FFA06462C
:100BD0002061B4F91400FFF73CFD164F3946FFF7CA
:100BE0001DFB134DD8356863B4F91600FFF731FDCE
:100BF0003946FFF713FBA863B4F91800FFF729FD86
:100C00003946FFF70BFB0C4FE8633946A068FFF746
:100C100005FBE8613946E068FFF700FB28623946CA
:100C20003046FFF7FBFA6862BDE8F08178070020E4
:100C300058060020E2007A3D5C20194070472DE9FB
:100C4000F0410C461546064650F824701AE06D1E19
:100C5000AC4205DA56F825003946FFF76BFDF6D9A8
:100C600056F8250046F8240000E0641CAC4205DA82
:100C700056F824003946FFF753FDF6D956F82400FC
:100C800046F82500AC42E3DB46F824702046BDE878
:100C9000F041FFF7DEBC0870020A4A70020C8A704D
:100CA000000EC8707047000010B5094800F0F0F958
:100CB0006421074800F04EF9054800F08DF880B235
:100CC000FFF7D0FC0349FFF7A9FA0349086010BDFC
:100CD000E0080020B22FD93A0C040020F8B5002417
:100CE000009490F824202546012A12D0012280F891
:100CF00024204A681F23072A0DD20668776B521EEC
:100D000002EB820293409F430B6893401F4377633B
:100D100019E00220F8BD06680D2A0AD2376BD21FEF
:100D200002EB820293409F430B6893401F4337635B
:100D300009E0F76A0D3A02EB820293409F430B6889
:100D400093401F43F7620A68072306680A2A0AD3FA
:100D5000F7680A3A02EB420293409F438B68934044
:100D60001F43F76008E0376902EB420293409F435C
:100D70008B6893401F4337610A68102A01D0112AFB
:100D800020D1124B02689A4217D193681B0219D4E2
:100D9000936843F4000393600968102912D10C4949
:100DA0000C4A0968B1FBF2F101EB8101490000E056
:100DB000491E00910029FBD104E0816A41F0200125
:100DC0008162012480F824502046F8BD00240140AF
:100DD0001805002040420F000068C06C70470000FA
:100DE0002DE9F0414FF0000704003D467ED0A06A97
:100DF000002628B9E66284F82460204600F07EF8D8
:100E00002046FFF703FEA16AC90600D420B1A06AFC
:100E100040F01000A06269E0A16A21F4885141F01D
:100E20000201A1626268E169237B0A4347EA430148
:100E30000A43A1684FF48077B94209D0012907D04D
:100E40005FF0000194F814C0BCF1010F02D00AE079
:100E50003946F7E7F3B1A36A43F02003A362E36ADC
:100E600043F00103E3622368D3F804C02CF4694C17
:100E70004CEA010CC3F804C021688B68DFF870C02D
:100E800003EA0C0313438B60A168B9420BD001291C
:100E900009D00CE0DFF85CC0A3690CEB43330B43D3
:100EA00043F40061DFE7218A0D05A5F5801521686F
:100EB000CB6A23F470032B43CB62216889680E4B05
:100EC0001940914208D1E662A16A21F0020141F085
:100ED0000101A162BDE8F081A06A20F0020040F0AB
:100EE0001000A062E06A40F00100E0620120F1E73A
:100EF000FDF7E1FF00E0FFFFFE0E1FFF00B585B02C
:100F00000021009101910291039100680E498842ED
:100F100018D10E48816941F400718161816901F441
:100F200000710491816941F0040181618069694621
:100F300000F0040004901020009003200190044869
:100F400000F018F905B000BD002401400010024077
:100F5000000801402DE9F84300270D46044600979C
:100F600000F006FA804620688168C90508D5A06AA5
:100F700040F02000A06284F824700120BDE8F883CE
:100F80004168C90503D4C06A10F4700F2AD002204A
:100F900000F03AFD3B490968B1FBF0F620680369AF
:100FA00039490B424FEA61014FEAA1121FD1C368D0
:100FB0004FEA611C13EA0C0F19D103690B4225D1CA
:100FC000C068104222D1142023E0681C0AD02DB141
:100FD00000F0CEF9A0EB0800A84203D92068006811
:100FE000800725D5206800688007EED52DE00369CD
:100FF0000B4202D1C168114206D0026923490A425C
:1010000006D1C068084203D1542002E0292000E044
:10101000FC204643009816E0681C11D02DB100F06A
:10102000A7F9A0EB0800A8420AD90098B04207D25D
:10103000A06A40F00400A06284F8247003209DE7B9
:101040000098401C0090B042E6D321686FF0120077
:101050000860A06A40F40070A06220688068C0F355
:10106000424007280CD1207B50B9A06A20F4807040
:10107000A062A06AC00403D4A06A40F00100A0628C
:1010800000207BE71805002024499224499224007F
:1010900070B5044690F8240001280DD0012084F892
:1010A00024002046FFF7DEFC02004FF0000005D0D0
:1010B00084F82400104670BD022070BDA16A40F281
:1010C0000123994341F48071A1621F4D23681F4998
:1010D000AB4218D10E6816F4702F14D0A66A46F4ED
:1010E0008016A6620E68760505D5A66A26F4005617
:1010F00046F48056A662A66AF6040AD5E66A26F089
:101100000606E66206E0A66A26F48016A6625E6817
:10111000E9E7E06284F824006FF0020018602068BC
:101120008368C3F34243072B05D1A84208D109685D
:1011300011F4702F04D0816841F480118160B9E707
:10114000816841F4A001F9E700280140042401402E
:1011500070B5044600F00CF90546601C02D0044846
:101160000078044400F004F9401BA042FAD370BD9B
:101170000C0500202DE9F84FDFF8B891002409F1A3
:10118000040A0AF1040B23460F270BF1040EC9E0F1
:101190000125A5402A40AA427DD1674ED1F804C05E
:1011A000ACEB0608B44532D014DCBCF1030F3AD0E6
:1011B00009DCBCF1000F2AD0BCF1010F1CD0BCF13E
:1011C000020F31D11DE0BCF1110F17D0BCF1120F8D
:1011D0002AD119E0B8F5881F19D006DCB8F5803F90
:1011E00015D0B8F5801F1FD111E0B8F5001F0ED043
:1011F000B8F5041F18D10AE0CB6815E0CB681B1DB9
:1012000012E0CB6808330FE0CB680C330CE08B683E
:101210002BB1012B4FF0080303D0456104E00423F8
:1012200002E0056100E00023FF2A01D8064601E044
:1012300000F104064FEA840501D9A5F12005D6F88E
:10124000008007FA05FC28EA0C0803FA05F548EACD
:101250000508C6F800804D68ED0062D5374DAE69CF
:1012600046F00106AE61AD6924F0030605F0010504
:101270000095334D06EB050CDCF80850A607360F39
:1012800007FA06F825EA0805DFF8B880404503D1DB
:101290004FF0000817E044E0DFF8AC80404502D191
:1012A0004FF001080FE0DFF8A480404502D14FF075
:1012B000020808E0DFF89880404502D14FF00308AB
:1012C00001E04FF0040808FA06F848EA0508CCF8EF
:1012D00008804D68D9F80060ED034D4601D51643EE
:1012E00000E096432E604D68DAF80060AD03554685
:1012F00001D5164300E096432E604D68DBF8006090
:10130000ED025D4601D5164300E096432E604D6820
:10131000DEF80060AD02754601D5164300E0964345
:101320002E60641C0D682A46E5407FF431AFBDE8AD
:10133000F88F00000004014000001110001002406E
:101340000000014000080140000C01400010014075
:1013500000140140C26821EA02030A4043EA024144
:10136000016170470AB1016170470904FBE70000A1
:1013700001488068704700000C05002070B504002B
:1013800025D094F83D00002520B984F83C50204633
:1013900000F078FA242084F83D002068016821F0EC
:1013A000010101602068016841F40041016020688A
:1013B000016821F40041016000F096FC4D4A61682B
:1013C000914201D84C4900E04C49884201D20120A9
:1013D00070BD4B492368B0FBF1F15E6826F03F0613
:1013E0000E435E606368934206D94FF49673594387
:1013F0004FF47A73B1FBF3F12368491C1E6A26F09F
:101400003F06314319626168914210D84900401E7D
:10141000B0FBF1F2521CC2F30B02042A01D20420E9
:1014200022E0B0FBF1F0401CC0F30B001CE0A2680E
:10143000F2B301EBC10303EB0116431EB3FBF6F35A
:101440005B1C43F480431B0549D092B301EBC102FE
:1014500002EB0111401EB0FBF1F0401CC0F30B0089
:1014600040F4804040F400402168CA694CF6FF73A4
:101470009A431043C861D4E9071001432068026809
:1014800022F0C00211430160D4E903010143206846
:10149000826848F2FF339A4311438160D4E9050121
:1014A00008432168CA6822F0FF021043C86001E0C7
:1014B0000EE016E02068016841F00101016025643A
:1014C000202084F83D00256384F83E50002070BD44
:1014D00001EB4106431EB3FBF6F35B1CB3E70120AF
:1014E000C2E701EB4101401EB0FBF1F0401CC0F32C
:1014F0000B00B7E7A086010080841E0000093D00B4
:1015000040420F002DE9FF4F83B00025DDE910793F
:101510009A4693460446DDF848800095FFF728FF79
:10152000064694F83D0020287CD1192301228549E4
:101530002046009601F072FA0028F5D194F83C009C
:1015400001286FD0012084F83C0020680168C90799
:1015500003D1016841F0010101602068016821F4B4
:1015600000610160222084F83D00402084F83E00A4
:1015700025646762A4F82A90608D20857248E06235
:10158000CDE9008653465A462046049901F04EF9AB
:1015900000287DD1208DDFF8B491202768B1012883
:1015A00014D00228206801681ED041F480610160D7
:1015B0002068416980690090B6E0206841698169CE
:1015C0000091016841F400710160ADE0206801689C
:1015D00021F48061016072B62068416981690091DF
:1015E000016841F400710AE041F40061016072B6E3
:1015F0002068416981690091016821F4806101607E
:1016000062B691E0032868D801280CD0022843462E
:101610004FF000024946204600960FD001F0FEF937
:10162000B0BB10E08BE032464146204601F075FA2F
:1016300070BB20680069616A08706CE001F0EEF927
:1016400030BB72B634E02068016821F4806101602B
:1016500072B620680069616A0870606A401C606246
:10166000208D401E2085608D401E6085384846F2E2
:10167000A8110068B0FBF1F0C0EBC00000EB8000E7
:101680000090401E009008D020684069C04300E0F0
:1016900029E040070CD50098F3E744F8305F677302
:1016A000A573206940F02000206162B625731AE01E
:1016B0002068016841F40071016020680069616A76
:1016C0000870606A401C6062218D491E2185618D11
:1016D000491E618562B621681BE0324641462046BC
:1016E00001F01BFA18B1012007B0BDE8F08F2068A7
:1016F0000069616A0870606A401C6062218D491E41
:101700002185618D491E618521684A69D24352074E
:101710000AD409690170606A401C6062208D401E15
:101720002085608D401E6085208D00287FF46AAF83
:1017300084F83D7084F83E5084F83C50D4E7022091
:10174000D2E70000020010000000FFFF04000100CB
:10175000180500202DE9FF4F83B09A46DDE9119767
:1017600093460446DDF84080FFF702FE054694F8F4
:101770003D0020287FD119230122404920460095B1
:1017800001F04CF9002876D194F83C00012872D081
:10179000012084F83C0020680168C90703D1016872
:1017A00041F0010101602068016821F400610160DD
:1017B000212084F83D00402084F83E000026266465
:1017C000C4F82480A4F82A90608D20852C48E0621B
:1017D000CDE9007553465A462046049901F0A4F815
:1017E00070B930E02A463946204601F0C9F958B1AF
:1017F000206C042804D12068016841F40071016064
:10180000012007B0BDE8F08F606A216800780861A8
:10181000606A401C6062218D491E89B22185628DFB
:10182000521E628522685369DB435B070BD469B1A2
:1018300000781061606A401C6062208D401E208527
:10184000608D401E6085208D0028CBD12A46394608
:10185000204601F0BDF80028CAD154F83D0B0168BC
:1018600041F400710160202004F81E09E6776677D4
:101870000020C6E7FFE70220C3E7000002001000D7
:101880000000FFFF10B586B0002100910191029188
:10189000039100681349884222D1134CA06940F09B
:1018A0000800A061A069694600F0080004904FF4A8
:1018B0004070009012200190032003900B48FFF726
:1018C00059FC0B48416841F0E06141F00201416080
:1018D000E06940F40010E061E06900F40010049059
:1018E00006B010BD0054004000100240000C014042
:1018F000000001400248816802781144816070470D
:101900000C050020074810B5016841F01001016086
:10191000032000F067F8002000F006F800F024F83B
:10192000002010BD0020024070B50D4D04464FF45C
:101930007A712878B1FBF0F00A490968B1FBF0F040
:1019400000F03BFD48B9102C07D200222146501E62
:1019500000F028F800206C6070BD012070BD000010
:101960000C050020180500200C4808B5816941F0DD
:1019700001018161816901F001010091C16941F0BA
:101980008051C161C06900F08050009004484168F6
:1019900021F0E06141F00071416008BD001002409B
:1019A00000000140F0B40E4B1B680C46C3F3022349
:1019B000C3F10705042D00D90425191D072901D2FB
:1019C000002300E0DB1E012606FA05F1491E214036
:1019D00099409E40761E16403143F0BC02F0F4BCA4
:1019E0000CED00E0064900F0070208684FF6FF031F
:1019F000184040EA0220034A104308607047000084
:101A00000CED00E00000FA0510B529A401461DCC3C
:101A100086B08DE81D002AA02A4C006804900020A2
:101A2000012923D002293AD010291DD161682268EA
:101A3000D20119D5C1F38342C9031DF8020009D5AB
:101A4000616804AAC1F34041515C1F4AB2FBF1F145
:101A5000484301E01D4948436168490204D44000FD
:101A60005FF00301B0FBF1F006B010BD226AC2F3D3
:101A70000121012903D1920701D5C803F4E7022906
:101A800005D1626A920702D549F64040ECE7032986
:101A9000EAD121688903E7D54FF22440E4E700F05A
:101AA00033F96168C1F38131491C4900DAE700006C
:101AB00002030405060708090A0B0C0D0E0F10108F
:101AC000010200000010024000127A0000093D00EF
:101AD0002DE9F84305460078354CC00754D0E0693D
:101AE0000026C00008D4E06940F08050E061E06961
:101AF000012600F0805000902E480168C90512D4DC
:101B00000168804641F480710160FFF731FC0746AF
:101B100005E000BFFFF72CFCC01B642823D8D8F8D1
:101B20000000C005F6D5206A10F4407021D0A988C5
:101B300001F4407181421CD0206A1F49012220F427
:101B400040700A6000220A602062C00711D0FFF7CF
:101B50000FFC074641F2883808E000BFFFF708FC99
:101B6000C11B414502D90320BDE8F883206A8007E4
:101B7000F4D5206A696820F44070084320621EB1E1
:101B8000E06920F08050E0612878800705D5606822
:101B9000A96820F44040084360602878C00605D555
:101BA0006068E96820F48000084360600020DBE79B
:101BB0000010024000700040400442422DE9F0470E
:101BC0000F46050061D0434E306800F00700B84270
:101BD00009D2306820F0070038433060306800F0E8
:101BE0000700B84251D128683B4C810712D5400705
:101BF00003D5606840F4E06060602878000703D592
:101C0000606840F4605060606068A96820F0F0008F
:101C1000084360602878C00728D06868012810D081
:101C20002168022810D0890700292EDA616821F086
:101C3000030101436160FFF79BFB804641F2883955
:101C40000DE021688903EFE78901EDE7FFF790FBDD
:101C5000A0EB0801494502D90320BDE8F087606880
:101C6000696800F00C00B0EB810FEFD1306800F034
:101C70000700B8420BD9306820F0070038433060C5
:101C8000306800F00700B84201D00120E5E728786D
:101C9000400705D56068E96820F4E06008436060AB
:101CA0002878000706D56068296920F4605040EA6A
:101CB000C100606000F038F86168084AC1F30311A0
:101CC000515CC8400649086006480068FFF72CFED2
:101CD0000020C2E70020024000100240C850000867
:101CE00018050020100500200448054900684968CF
:101CF000044AC1F30221515CC84070471805002016
:101D000000100240D850000804480549006849689E
:101D1000044AC1F3C221515CC84070471805002035
:101D200000100240D850000812A185B00FC98DE8FC
:101D30000F0014A0144A006804905168134801F081
:101D40000C03042B10D0082B0ED1C1F38343C9031D
:101D50001DF803000AD5516804AAC1F34041515C43
:101D60000A4A5043B0FBF1F005B0704708494843B8
:101D7000FAE7000002030405060708090A0B0C0D28
:101D80000E0F1010010200000010024000127A0035
:101D900000093D002DE9F84F040070D02078C04DB7
:101DA000C00749D06868C0F38100012807D068687F
:101DB000C0F38100022809D16868C00306D52868ED
:101DC000800339D560680028E7D035E06068B0F559
:101DD000803F0BD010B1B0F5A02F11D0286820F4AF
:101DE00080302860286820F4802002E0286840F4D1
:101DF00080302860606890B1FFF7BAFA06460AE0C2
:101E0000286840F480202860F0E700BFFFF7B0FAB0
:101E1000801B642873D828688003F7D50CE0FFF78F
:101E2000A7FA064605E000BFFFF7A2FA801B642868
:101E3000F0D828688003F7D420789A4E80074FF0B6
:101E400001094FF0000839D5686810F00C0F07D071
:101E50006868C0F38100022809D16868C00306D40D
:101E60002868800714D52069012808D110E020696E
:101E7000B0B1C6F80090FFF77BFA074605E00AE12B
:101E8000FFF776FAC01B0228C4D828688007F7D568
:101E90002868616920F0F80040EAC10028600DE080
:101EA000C6F80080FFF764FA074604E0FFF760FA1F
:101EB000C01B022823D828688007F7D420780007A1
:101EC0002CD57948A169D9B1C0F80090FFF750FA34
:101ED000074604E0FFF74CFAC01B02280FD8686AD7
:101EE0008007F7D571484FF4FA510068B0FBF1F064
:101EF000009000BF0098411E0091FAD20EE080E0F1
:101F0000C0F80080FFF734FA074604E0FFF730FA24
:101F1000C01B022875D8686A8007F7D4207840076C
:101F200060D5E8690027C00008D4E86940F0805017
:101F3000E861E869012700F0805000905C48016882
:101F4000C90513D40168834641F480710160FFF72D
:101F50000FFA824606E000BFFFF70AFAA0EB0A007C
:101F600064284ED8DBF80000C005F5D5E0680128EC
:101F70000AD008B1052813D0286A20F00100286291
:101F8000286A20F0040002E0286A40F0010028627C
:101F9000E06841F2883B98B1FFF7EAF982460BE02E
:101FA000286A40F004002862EEE700BFFFF7E0F97E
:101FB000A0EB0A0159455AD8286A8007F6D50CE0EB
:101FC000FFF7D6F9824605E0FFF7D2F9A0EB0A0148
:101FD00059454CD8286A8007F6D41FB1E86920F02B
:101FE0008050E861E06988B36968C1F38101022922
:101FF00044D00228C6F8608004D0FFF7B9F904463F
:1020000038E034E0FFF7B4F9074604E0FFF7B0F931
:10201000C01B02282BD828688001F7D4206AB0F5AD
:10202000803F05D16868A16820F4003008436860EB
:10203000D4E908010843696821F474110843686011
:10204000C6F86090FFF794F9044606E025E000BF6B
:10205000FFF78EF9001B022809D828688001F7D500
:102060001BE000BFFFF784F9001B022802D9032000
:10207000BDE8F88F28688001F4D40EE00128F7D07D
:102080006868226A00F48031914204D1616A00F4E8
:102090007010884201D00120EAE70020E8E7000044
:1020A0000010024000004242800442421805002015
:1020B0000070004070B5040009D0606A002540B18E
:1020C00025616561A56294F8510040B10CE00120E2
:1020D00070BD6068B0F5827FF4D0E561F2E784F806
:1020E0005050204600F040F8022084F8510020684B
:1020F000016821F040010160A088218900F482700C
:1021000001F404410843A18901F400610843217CE2
:1021100001F002010843217D01F001010843218BF8
:1021200001F400710843217F01F03801084394F85D
:10213000201001F080010843218D01F40051084373
:1021400021680860A069042101EA10402168486004
:102150002068C16921F40061C1616565012084F8CE
:102160005100002070BD000030B585B000240094FF
:1021700001940294039400681449884223D11448BE
:10218000816941F480518161816901F48051049138
:10219000816941F00401816180690E4D00F0040005
:1021A0000490A02000900220019003200390694633
:1021B0002846FEF7DFFF4020CDE9000469462846A7
:1021C0000294FEF7D7FF05B030BD0000003001409B
:1021D00000100240000801402DE9F84F044690F835
:1021E000500000270A9E1D4692468B464FF001097B
:1021F00001280ED0012084F85000FFF7B9F880467E
:1022000094F85100616801280CD0B1F5827F07D1A4
:1022100002E00220BDE8F88FA16809B9042801D0C6
:102220000227C2E0BBF1000F27D0BAF1000F24D083
:102230001DB394F85100042802D0052084F8510001
:1022400000206065C4F838A0E587A587C4F830B0E1
:10225000E586A5862064606420680168490603D489
:10226000016841F040010160E068B0F5006F60680E
:1022700005D0E8B3012D46D07FE0012795E008B1F5
:10228000012D39D1206B21680088C860206B801C2B
:102290002063E08E401EE0862EE02068816889077A
:1022A0000FD5E18E69B1B9F1010F0AD1216B09880F
:1022B000C160206B801C2063E08E401EE0864FF0E2
:1022C000000920688168C9070CD0E18F51B1C0684E
:1022D000A16B0880A06B801CA063E08F401EE0878C
:1022E0004FF00109FFF744F8A0EB0800B04200E00E
:1022F00009E001D3701C50D1E08E0028CDD1E08FD1
:102300000028CAD13FE0206B216800780873206B59
:10231000401C2063E08E401EE0862EE0206881682D
:1023200089070FD5E18E69B1B9F1010F0AD1216B8F
:1023300009780173206B401C2063E08E401EE0860C
:102340004FF0000920688168C9070CD0E18F51B1B6
:10235000C068A16B0870A06B401CA063E08F401E9A
:10236000E0874FF00109FFF703F8A0EB0800B04247
:1023700002D3701C01D010E07EB1E08E0028CDD1D8
:10238000E08F0028CAD142463146204601F02CFA9F
:1023900028B101272020606507E0032705E0A06839
:1023A00018B92068C16880680090012084F8510045
:1023B000002084F8500038462CE710B5401EB0F1DC
:1023C000807F01D3012010BD4FF0E02460610F2118
:1023D000601701F0F9FF0020A061072020610020B4
:1023E00010BD000070B590F83C20012A26D00124D1
:1023F00080F83C40022280F83D2003685A689D68BE
:1024000022F070060A6832435A600D4B02689A4205
:1024100008D0B2F1804F05D00A4B9A4202D00A4B45
:102420009A4204D1496825F080031943916080F8ED
:102430003D40002180F83C10084670BD022070BD70
:10244000002C0140000400400008004000B585B0A9
:10245000002100910191029103910068B0F1804F39
:1024600011D10A48816941F004018161806969469E
:1024700000F0040004900F200090022001900390CF
:102480000348FEF777FE05B000BD000000100240D3
:102490000008014070B5044690F83C000D46012844
:1024A0000AD0012084F83C0042B1042A18D0082A3E
:1024B0002AD00C2A4DD139E0022070BD206801F0ED
:1024C0002BFE2068816941F00801816120688169E3
:1024D00021F004018161206881692A69114311E0BA
:1024E000206801F041FE2068816941F4006181614A
:1024F0002068816921F480618161206881692A698D
:1025000041EA0221816124E0206801F059FE20683F
:10251000C16941F00801C1612068C16921F004016D
:10252000C1612068C1692A69114311E0206801F086
:1025300073FE2068C16941F40061C1612068C1690E
:1025400021F48061C1612068C1692A6941EA0221E0
:10255000C161002084F83C0070BD10B5040003D0B8
:1025600094F83D0010B107E0012010BD002084F870
:102570003C00204600F01EF8022084F83D00211D9A
:10258000206801F085FD012084F8460084F83E00B3
:1025900084F83F0084F8400084F8410084F8420049
:1025A00084F8430084F8440084F8450084F83D0032
:1025B000002010BD08B50068B0F1804F08D1054873
:1025C000C16941F00101C161C06900F001000090E2
:1025D00008BD00000010024010B50446022249B1B7
:1025E00004290ED0082913D094F84100012816D0F0
:1025F000012010BD94F83E000128F9D184F83E2056
:102600000FE094F83F000128F2D184F83F2008E061
:1026100094F840000128EBD184F8402001E084F8D0
:1026200041200122206801F069FD0F49206888429D
:1026300003D1426C42F4004242642068884208D0D0
:10264000B0F1804F05D00949884202D0084988423C
:1026500004D1816801F00701062903D0016841F027
:1026600001010160002010BD002C01400004004069
:102670000008004070B5040004D094F83D00002527
:1026800010B106E0012070BD84F83C50204600F0F7
:1026900023F8242084F83D002068C16821F400510B
:1026A000C160204601F0DAFD2068016921F4904103
:1026B00001612068416921F02A0141612068C168F7
:1026C00041F40051C1602564202084F83D0084F865
:1026D0003E00002070BD000030B585B0002400949D
:1026E00001940294039400681449884224D1144848
:1026F000816941F480418161816901F480410491E3
:10270000816941F00401816180690E4D00F004008F
:1027100004904FF400700090022001900320039079
:1027200069462846FEF726FD2815CDE900046946CE
:1027300028460294FEF71EFD05B030BD003801406A
:1027400000100240000801402DE9F843044690F8CB
:102750003D001F4616460D4620284CD1C5B1BEB1DE
:1027600094F83C00012846D0012084F83C004FF04A
:102770000008C4F84080212084F83D00FEF7F8FDF1
:10278000A6848146E684A068B0F5805F03D004E0AB
:102790000120BDE8F883206928B12E465FF00005CE
:1027A00084F83C800EE00026FAE78021204601F004
:1027B000B1FDA0B9AEB116F8010B21684860E08CFC
:1027C000401EE084E08C4B464FF00002009700284A
:1027D000EBD14FF04001204601F09CFD30B10320C9
:1027E000D7E735F8020BC0F30800E6E7202084F8AD
:1027F0003D000020CDE70220CBE7FEE701684A69F3
:10280000D24352050FD46FF480624A61002140F830
:10281000301F202242738173026942F00402026178
:102820000173012070470020704700002DE9F84F28
:102830000446006889460B9D01689846174641F496
:10284000806101602068016841F480710160009539
:102850004FF0011B0022594620460A9B00F0DEF88B
:102860004FF4007A40B120680068C00501D5C4F873
:1028700040A00320BDE8F88F216809F0FE00086140
:102880002B46284920460A9A00F0FCF8F0BB206845
:102890004169806900902A4620460A9900F070F943
:1028A00040B1206C04283AD12068016841F40071DD
:1028B000016034E0FEB2B8F1010F09D02168380A96
:1028C00008612A4620460A9900F05AF90028E8D102
:1028D000206806612A4620460A9900F051F900282E
:1028E000DFD12068016841F4807101600095002209
:1028F000594620460A9B00F091F80028B3D1216880
:1029000009F0FF0040F00100086100E007E02B46FD
:10291000044920460A9A00F0B5F80028AAD0012000
:10292000A8E70000020001002DE9F8430446006812
:102930000D46DDE9089701689846164641F4807116
:1029400001604B4600224FF001112046009700F035
:1029500065F848B120680068C00502D54FF40070E2
:1029600020640320BDE8F883216805F0FE000861BB
:102970003B464A461549204600F084F888B920684D
:102980004169806900903A464946204600F0F8F8CF
:1029900048B1206C042804D12068016841F400711A
:1029A00001600120DEE7F5B2B8F1010F09D021681E
:1029B000300A08613A464946204600F0E1F800280E
:1029C000E7D1206805610020CCE70000020001008B
:1029D00070B516460D4604460DE02046FFF70EFF83
:1029E00008B1012070BD681C05D0FEF7C1FC801B3A
:1029F000A84207D835B120684069C0434007ECD4ED
:102A0000002070BD002044F8300F20216173A073B6
:102A1000216941F0200121612073E2E72DE9F047AF
:102A20001E4690460D460446C1F30747DDF8209048
:102A300008E0701C06D0FEF79BFCA0EB0900B0423A
:102A40000FD876B12068012F18D0806925EA0000E0
:102A50000004000C14D000214145EAD00020BDE85C
:102A6000F087002044F8300F20216173A0732169A2
:102A700041F02001216120730120F0E74069E5E782
:102A80000121E9E72DE9F0479A4691460E460446B2
:102A900000254FF02008C1F3074725E02068406972
:102AA000C043400514D42068016841F400710160FE
:102AB00021686FF480604861256384F83D8084F864
:102AC0003E50206C40F00400206484F83C501FE02D
:102AD000B9F1FF3F08D0FEF74BFCA0EB0A014945D6
:102AE0000CD8B9F1000F09D02068012F13D08069EC
:102AF00026EA00000004000C0BD0CFE744F8305F5A
:102B000084F80D80A573206940F0200020612573B2
:102B10000120BDE8F0874069EAE72DE9F041002592
:102B200090460E460446202717E04069C043C00681
:102B30000CD454F8301B6FF01000486144F8105961
:102B40006777A577206A2062257717E0FEF710FCEB
:102B5000A0EB0800B04208D83EB120684169C943E3
:102B60004906E2D40020BDE8F08144F8305F677385
:102B7000A573206940F02000206125730120F2E751
:102B800070B516460D4604460DE02046FFF736FEAA
:102B900008B1012070BD681C05D0FEF7E9FB801B61
:102BA000A84207D835B120684069C0430006ECD47C
:102BB000002070BD002044F8300F20216173A07305
:102BC000216941F0200121612073E2E72DE9FF4FE7
:102BD00099B01C4615460F46FE480590002004900B
:102BE000D2E9006841463046FDF718FBD5F8089059
:102BF0004946FDF713FB10F0FF4F7DD0206803908E
:102C000060680290A0680190E0680090DDE9021021
:102C1000FDF704FB0C9001990398FDF7FFFA029968
:102C200012900846FDF7FAFA0F9000990298FDF706
:102C3000F5FA109001990846FDF7F0FA0E90DDE9DB
:102C40000010FDF7EBFA009911900846FDF7E6FA3F
:102C50008246DDE90110FDF7E1FA1590009903982D
:102C6000FDF7DCFA494616900846FDF7D7FA81468B
:102C700041460846FDF7D2FA804631460846FDF740
:102C8000CDFA4146FDF772FA4946FDF76FFA02F0B8
:102C90005DF8814649462868FDF7F2FA064649463E
:102CA0006868FDF7EDFA80464946A868FDF7E8FA3E
:102CB000054601215046FDF721FB834681460A90D7
:102CC00001210E98FDF71AFB099049460B90FDF77C
:102CD0004DFA4FF07E594946FDF79DFA20610121DA
:102CE0001698FDF70BFB8246179001211598FDF70A
:102CF00005FB5146159000E0D0E1FDF789FA6061CF
:102D000001211298FDF7FAFA824601211098FDF789
:102D1000F5FA51461290FDF729FAA0611799159816
:102D2000FDF724FA1090E06101210F98FDF7E6FA13
:102D300059461590FDF71AFA4946FDF76CFA2062DC
:102D400001210C98FDF7DAFA1790069001211198ED
:102D5000FDF7D4FA83460699FDF75AFA60625146A8
:102D60001298FDF755FA1290A062824658461799BC
:102D7000FDF7FCF91190E06207900B991598FDF7AB
:102D8000F5F94946FDF747FA834620632946079837
:102D9000FDF744FA814640465946FDF73FFA494659
:102DA000FDF736FA814630465946FDF737FA834635
:102DB00029465046FDF732FA5946FDF729FA0546ED
:102DC00040465146FDF72AFA804631460798FDF7FE
:102DD00025FA4146FDF71CFA06464FF07F584B4650
:102DE0007D4A4146199801F0DDFE7B4A2B460832A8
:102DF0004146199801F0D6FE774A334610324146D3
:102E0000199801F0CFFE7448416808911998FDF7B0
:102E100005FA0499FDF702FA704D2968FDF7A6F945
:102E2000064628606C48083040688246014619987A
:102E3000FDF7F4F90499FDF7F1F96968FDF796F9E2
:102E4000814668606448103040688346014619989E
:102E5000FDF7E4F90499FDF7E1F9A968FDF786F9B2
:102E60008046A86031460898FDF780F90599FDF77E
:102E7000D5F905465A493868FDF7D0F92946FDF7D6
:102E800075F91999FDF7CAF94FF0FF31FDF736FAD8
:102E9000054649465046FDF769F90599FDF7BEF923
:102EA00006464F497868FDF7B9F93146FDF75EF9F6
:102EB0001999FDF7B3F94FF0FF31FDF71FFA0646F8
:102EC00041465846FDF752F90599FDF7A7F98046A6
:102ED0004349B868FDF7A2F94146FDF747F919994A
:102EE000FDF79CF94FF0FF31FDF708FA0746014660
:102EF0000098FDF793F9814631460198FDF78EF968
:102F0000804629460298FDF789F90399FDF783F970
:102F10004146FDF77DF94946FDF77AF98246206082
:102F200031460098FDF77AF9814639460198FDF758
:102F300075F9804629460398FDF770F90299FDF767
:102F400015F94146FDF712F94946FDF761F9814649
:102F5000606029460098FDF761F98346394602987A
:102F6000FDF75CF9804631460398FDF757F9414675
:102F7000FDF74EF90199FDF7F9F85946FDF7F6F816
:102F80008046A06029460198FDF748F983463146FE
:102F90000298FDF743F9054639460398FDF73EF9D7
:102FA0002946FDF7E3F85946FDF732F90099FDF798
:102FB000DDF80146E060FDF731F907464146084675
:102FC000FDF72CF9064649460846FDF727F9054660
:102FD000514607E0CDCC4C3FF4040020480A0020C5
:102FE00035FA8E3C0846FDF719F92946FDF7BEF87B
:102FF0003146FDF7BBF83946FDF7B8F801F0A6FEFB
:10300000054629462068FDF73BF92060294660689F
:10301000FDF736F960602946A068FDF731F9A06038
:103020002946E068FDF72CF9E0601298FDF749FBAE
:1030300001F016FB4FF0C0421A4BFDF712FAFDF7F4
:1030400053FB20654FF040463146099D0F98FDF730
:10305000E5F82946FDF7DCF84FF07E552946FDF7E7
:1030600085F80146119801F0F1FC0F4F3946FDF744
:10307000D5F8E0643146DDF828800E98FDF7CEF8EB
:103080004146FDF7C5F82946FDF770F8014610984E
:1030900001F0DCFC3946FDF7C1F860651DB0BDE804
:1030A000F08F000066A64C40333365C22DE9F84F1F
:1030B0000C4688601C490646D4F804804868276995
:1030C0001546642825DBE168A868FDF7A7F800909D
:1030D00039466868FDF7A2F8834621686869FDF7FC
:1030E0009DF8824641462869FDF798F881463146A9
:1030F000E868FDF793F84946FDF738F85146FDF7C3
:1031000035F85946FDF784F80099FDF781F86061BC
:1031100002E0401C66614860E760C4E900866069BF
:103120002061BDE8F88F0000000000202DE9F0418B
:103130001E68884607461C4631461046FDF768F86B
:1031400005460E493846FDF769F84146FDF766F831
:1031500001464FF07E573846FDF792F83946FDF7A5
:1031600005F801463846FDF78BF82946FDF756F875
:103170003146FCF7FBFF2060BDE8F081C3F5C84095
:1031800070B501F0B3FDFDF7FBFC2648264C27493E
:1031900003692748626B00F097FA26482649A26B1C
:1031A0000369264800F090FA25482649E26B036936
:1031B000254800F089FA254C207808B31F48066995
:1031C0001B48314605692846FDF722F8FDF760FAED
:1031D000608085F000403146FDF71AF8FDF758FA97
:1031E000A08029463046FDF713F8FDF751FAE0803C
:1031F00031462846FCF7BAFFFDF74AFA208104E081
:1032000000202081E080A0806080B4F90830B4F90B
:103210000620B4F90410B4F90200BDE8704000F0D3
:10322000A5B90000DC0700203007002010040020B2
:1032300018080020F0070020200400202C0800209F
:1032400004080020CC070020400800205004002083
:1032500070B5264A244B02F118012548FFF7B6FC49
:10326000214C244D2946E06CFCF7D8FFFDF710FAFD
:10327000FDF7EFF9034600221F49204800F024FA29
:103280002946206DFCF7CAFFFDF702FAFDF7E1F9C8
:10329000034600221A491B4800F016FA2946606DC1
:1032A000FCF7BCFFFDF7F4F9FDF7D3F90346002264
:1032B0001549164800F008FA0C4915481C394A6BA4
:1032C00002608A6B4260C96B816012490969C16002
:1032D000114909690161114909684161BDE87040FE
:1032E000062100F0EFBA00009C0400204C070020EB
:1032F0006F12833B0000C8429C070020DC070020BF
:10330000AC070020F0070020BC07002004080020C4
:10331000B8080020180800202C08002048040020CD
:1033200003480179002901D0002101717047000094
:103330007408002000F01ABA70B500F075FB01F0B7
:103340008FFDFDF7B1FC0F480F49806809680F4AEF
:10335000081A0021C82800D911700D4B4FF4000540
:10336000D86CA84201DA80F000400A4CA04206DC8A
:10337000186DA84201DA80F00040A04200DD117013
:1033800070BD0000740800201405002050040020C7
:103390009C040020000034423EB5002411480094F3
:1033A000019402940E498460016004730475012540
:1033B00005614FF460214460C161FDF711FD08B162
:1033C00072B6FEE70420CDE900056946029405487F
:1033D000FDF784FC002801D072B6FEE73EBD000078
:1033E00000240140E00800202DE9F04385B00024CE
:1033F00021480094019402940394816941F02001D2
:103400008161816901F020010491816941F0040129
:103410008161816901F004010491816941F0080131
:1034200081618069DFF8548000F008004CF2870564
:103430000490002229464046FDF794FFDFF84090B3
:103440004FF48077002239464846FDF78BFF009500
:10345000022601250396CDE9015469464046FDF751
:1034600089FE00970396CDE9015469464846FDF769
:1034700081FE05B0BDE8F08300100240000C014061
:10348000000801400F4810B50D4901604FF48271EA
:10349000416000218160C1604FF400720161C0E9A8
:1034A00005120822C0E90721416281620A21C16236
:1034B000FEF700FE002801D072B6FEE710BD000046
:1034C000003001406409002010B58AB00024079440
:1034D0001C2168460894FCF73EFE22484FF08041CC
:1034E00001604821C0E901144FF47A71C0E9031466
:1034F0008461FFF732F808B172B6FEE7079407A9B6
:1035000018480894FEF76EFF08B172B6FEE7602017
:10351000CDE9000402940022694612480494FEF7A3
:10352000B9FF08B172B6FEE7042269460D48FEF7FE
:10353000B1FF08B172B6FEE7082269460948FEF7F6
:10354000A9FF08B172B6FEE70C2269460548FEF7EE
:10355000A1FF08B172B6FEE70248FEF777FF0AB096
:1035600010BD0000BC090020FEE7000030B5054C8E
:103570002568A86320684163206802642068C363EB
:1035800030BD0000BC090020FEE770B505460C46C2
:10359000072000F039F840060DD522462946612063
:1035A00000F00CF8E22000F059F84021272000F04C
:1035B0006DF8012070BD002070BD00002DE9F047BE
:1035C000DFF8409015460F4604464FF4805800221D
:1035D00041464846FDF7C6FE204600F02FF8064655
:1035E000002405E0002000F029F83855641CE4B2FE
:1035F000AC42F7D3012241464846FDF7B3FE3046C0
:10360000BDE8F087000C014070B50B4E04464FF446
:103610008055002229463046FDF7A4FE204600F0E2
:103620000DF8002000F00AF8044601222946304631
:10363000FDF798FE204670BD000C014001B582B038
:10364000642002AA0090012311460348FEF7C4FD3E
:103650009DF808000EBD00006409002070B50A4EF8
:1036600004464FF48055002229463046FDF77AFE85
:103670002046FFF7E3FF0446012229463046FDF7C6
:1036800071FE204670BD0000000C01402DE9F041A4
:103690000C4E0F4604464FF4805500222946304612
:1036A000FDF760FE2046FFF7C9FF04463846FFF7E6
:1036B000C5FF012229463046FDF754FE2046BDE8ED
:1036C000F0810000000C01402DE9F0470D46044652
:1036D000914611461846FCF79BFD804641466868B6
:1036E000FCF79CFD2168FCF741FD2060E968FDF7CF
:1036F00021F8E86808D980F000402168FDF71AF841
:1037000003D8E86880F0004020606768404639468A
:10371000FCF77EFDA968FCF781FD06464146286856
:10372000FCF77CFD2168FCF721FD3146FCF71EFD0E
:10373000C4E90390C4E90187BDE8F08770472DE92B
:10374000F04114460D460646A1420DDAFDF777FA20
:10375000FCF79EFF0746421E29463046FFF7EFFF63
:103760002246791C3046ECE7BDE8F08170B51A4D71
:103770004FF40064002221462846FDF7F3FD1F2187
:103780001648FFF702FF154A5078FF281DD19078A0
:10379000FE281AD1D07802F12003C0F1640018701D
:1037A00010795870507998709079C0F16400D87091
:1037B000D07958710120187109480068986000207C
:1037C0005070E1100748FDF7C5FD21462846BDE8C9
:1037D00070400122FDF7C6BD000C014054080020D6
:1037E000140500200008014038B50B46009204463D
:1037F0000022802100F008F8002804D0606D40F01D
:1038000020006065032038BD2DE9F8431E4691462F
:1038100088460446089DFDF7ABFD401B351AFDF7B1
:10382000A7FD074625480068C0F3CB30684338E061
:10383000701C37D0FDF79CFDC01BA84203D215B108
:10384000009860B32CE02068416821F0E0014160FD
:103850006068B0F5827F0BD1A068B0F5004F02D050
:10386000B0F5806F04D12068016821F0400101604B
:10387000A06AB0F5005F09D12068016821F4005109
:1038800001602068016841F400510160012084F862
:103890005100002084F850000320BDE8F883002583
:1038A000401E00902068816838EA010004D00021A1
:1038B0004945BDD10020F0E70121F9E718050020B6
:1038C0007047000038B5164C0D462178FF2913D0FB
:1038D00050F821006946FDF7DEF9642304226946A9
:1038E0001048FEF731FF2078401CC0B22070A8427B
:1038F00001D1FF20207038BD002020708DF800001D
:103900008DF8010080208DF802007F208DF80300E3
:103910006423042269460348FEF716FF38BD000001
:1039200098040020040A00202DE9FE4F07460020DD
:1039300002900190009014460E46B7F90000FCF783
:1039400088FEDFF8E080DFF8D8A098F800504AF849
:103950002500B7F90200FCF77CFE0AF1500949F88E
:103960002500B7F90400FCF774FE09F1500747F889
:1039700025006D1CE8B288F80000A04203D298F838
:103980000100002849D14FF0000B88F801B0621EF9
:1039900059462348FFF7D3FE2148621E00215030CC
:1039A000FFF7CDFE1E48621E0021A030FFF7C7FEC4
:1039B000CA460125B946671E14E0194850F825107B
:1039C0000298FCF7D3FB02905AF825100198FCF7F7
:1039D000CDFB019059F825100098FCF7C7FB6D1C32
:1039E000EDB20090BD42E8DB98F80010A14201D38F
:1039F00088F800B0A01EFCF72CFE04462146029871
:103A0000FCF73EFC306021460198FCF739FC706001
:103A100021460098FCF734FCB060BDE8FE8F000042
:103A2000200500200000002070B500F083F900F0B0
:103A300055F9184C606100F035F900F0C9F80146FD
:103A4000E0611548FCF7E4FB05461449FCF718FC57
:103A50000646E06028461249FCF7E0FB1149FCF7F6
:103A6000DDFB054610493046FCF7D8FB3146FCF734
:103A7000D5FB3146FCF7D2FB2946FCF777FB2061EA
:103A8000A168FCF7C5FB0949A061884200DDA06080
:103A900070BD000030040020000CC64700007A44CE
:103AA000EC51B83D0000C84285EB513F00401C4638
:103AB0002DE9F041102000F0D7F90446112000F064
:103AC000D3F901462001404C40EA1110020561681B
:103AD000088001D540F470400880112000F0C4F93E
:103AE0000546122000F0C0F905F00F0140EA012060
:103AF00061680205488001D540F470404880132079
:103B000000F0B2F90546142000F0AEF90646152083
:103B100000F0AAF9290341EA061141EA2010616880
:103B20002A4E0203486000D530434860152000F05B
:103B30009BF90546162000F097F90746172000F07C
:103B400093F9290441EA0721014360680A0381606F
:103B500000D531438160182000F086F90546192010
:103B600000F082F9616840EA052088811A2000F09F
:103B70007BF905461B2000F077F9616840EA0520D3
:103B8000C8811C2000F070F905461D2000F06CF97A
:103B9000616840EA052008821E2000F065F90546AC
:103BA0001F2000F061F9616840EA0520488220206A
:103BB00000F05AF90546212000F056F9616840EA04
:103BC00005208882BDE8F081300400200000F0FF6D
:103BD0002DE9F04732484468A06AFCF73AFD0546F3
:103BE000206AFCF736FD2946FCF74AFB8146606AED
:103BF000FCF72FFD0546E069FCF72BFD2946FCF795
:103C00003FFB0746B4F91400FCF723FD3946FCF7E7
:103C100005FB0546B4F91000FCF71BFD2946FCF72F
:103C2000A5FA3946FCF7FAFA0546A068FCF711FD3B
:103C30002946FCF79BFA8046B4F91200FCF709FD0F
:103C40003946FCF7EBFA0546B4F90E00FCF701FD26
:103C50002946FCF78BFA054639464846FCF7DEFA5A
:103C60002946FCF7DBFA0646B4F90C00FCF7F1FC38
:103C70004946FCF7D3FA054641463846FCF7CEFAEA
:103C800007466068FCF7E5FC3946FCF76FFA294601
:103C9000FCF76CFA3146BDE8F047FCF767BA000064
:103CA0003004002070B5002000F0DEF8044601204A
:103CB00000F0DAF80546022000F0D6F8210441EAC7
:103CC0000521014304480A024068C16101D541F061
:103CD0007F41C16170BD00003004002070B5144800
:103CE0004468A06AFCF7B5FC0546206AFCF7B1FC05
:103CF0002946FCF7C5FA0546B4F90200FCF7A9FC11
:103D00002946FCF78BFAFCF7DCFC06460D46B4F9B5
:103D10000000FCF7ACFC4FF0FF32FCF783FC3246AE
:103D20002B46FCF7F7FABDE87040FCF7DDBC00005D
:103D30003004002070B5032000F096F804460420FB
:103D400000F092F80546052000F08EF8210441EAC3
:103D50000521014304480A024068016201D541F08F
:103D60007F41016270BD00003004002010B5144690
:103D70000A460021102A14D006DC022A0BD0042A9D
:103D80000BD0082A14D10AE0202A0CD0402A0CD0EB
:103D9000802A0DD10BE010210AE0202108E030211B
:103DA00006E0402104E0502102E0602100E07021A3
:103DB000102C35D006DC022C23D0042C26D0082C65
:103DC00006D128E0202C30D0402C33D0802C37D0A6
:103DD0004FF40023234A526888B3012841D141F0AF
:103DE00080010720936200F06BF8082C39D9092074
:103DF00000F03AF840F00801BDE81040092000F05A
:103E00005FB841F001014FF4C013E3E741F0020154
:103E10004FF46013DEE741F003014FF4F003D9E7FC
:103E20004FF4783341F00401D4E74FF4FC2341F020
:103E30000501CFE74FF47E2341F00601CAE704E015
:103E40004FF4FF1341F00701C4E70620536200F06E
:103E500037F8082C05D9092000F006F840F00401D5
:103E6000CAE710BD300400207CB5104E04464FF464
:103E70000045002229463046FDF774FA44F08000E0
:103E80008DF80400FF208DF80500642001AA009041
:103E9000022311460648FEF79FF9012229463046C3
:103EA000FDF760FA9DF805007CBD0000000C0140A4
:103EB00064090020001DC1B2082000F001B8000014
:103EC0002DE9FC410E4F0C4605464FF400460022FA
:103ED00031463846FDF746FA64208DF8045001AAB1
:103EE00000908DF80540022311460648FEF774F94C
:103EF000012231463846FDF735FABDE8FC81000065
:103F0000000C01406409002010B5124C104800213B
:103F10006060C16101620D20FFF7A6FF616808764D
:103F2000FFF7C6FD102280210020FFF71FFF0822A7
:103F300011460120FFF71AFF0320FFF7BBFF60685F
:103F4000007E102801D0002010BD012010BD00000F
:103F50008008002030040020FDF7CCBC30B593B0C1
:103F600028216846FCF7F7F814210AA8FCF7F3F8B3
:103F7000002501200F9510951195010412958DE8EB
:103F8000230004904FF4E010CDE9081002240794B8
:103F90006846FDF7FFFE08B172B6FEE70AA90F20DA
:103FA00081E831004FF48060CDE90D0502210AA8B7
:103FB000FDF704FE08B172B6FEE74FF40040119021
:103FC0000F940FA8FDF784FD002801D072B6FEE71C
:103FD00013B030BD704700002DE9F04125484FF483
:103FE0007A710068B0FBF1F0401EB0F1807F0AD218
:103FF0004FF0E0214861204AF02082F8140D0020A3
:1040000088610720086100211C48FEF7E5FA0421B9
:104010001A48FEF7E1FA08211848FEF7DDFA0C21EC
:104020001648FEF7D9FA00F023FEFCF75BFD00BF4F
:10403000FFF76AFF0028FBD0114C124E04F11C055B
:104040004FF080484FF4FA7734343068B8420AD2DF
:1040500000F04CFEFCF794FD0B4B2A4621464046EF
:10406000FEF7B4FDF1E7BDE8F04101221102074877
:10407000FDF778B9180500200FE000E0BC0900202A
:1040800030070020140500209C0400200008014097
:10409000F0B50268164B174C174D4FF08047984209
:1040A00005D0B84203D0A04201D0A84203D122F0EB
:1040B00070064A683243984205D0B84203D0A04205
:1040C00001D0A84203D122F44074CA6822434C694B
:1040D00022F08002224302608A68C2620A68826219
:1040E000984201D10969016301214161F0BD0000DD
:1040F000002C0140000400400008004010B501F011
:104100001F030121046A99408C430462016A9A40AA
:104110001143016210BD000030B5026A22F00102B5
:104120000262026A4368846924F073050C682C43B8
:1041300022F002058A682A430A4DA8420BD122F0D8
:104140000805CA6823F440732A434D6922F004022B
:104150001D438B692B43436084614968416302625C
:1041600030BD0000002C014030B5026A22F0100280
:104170000262026A436884690D6824F4E64444EAF2
:1041800005248D6822F0200242EA05120B4DA84258
:104190000ED1CD6822F0800242EA05124D6923F467
:1041A000406343EA85038D6922F0400243EA8503B8
:1041B0004360846149688163026230BD002C014024
:1041C00030B5026A22F480720262036A4268C469EE
:1041D00023F4007324F073050C682C438D6843EAC4
:1041E00005230C4DA8420ED1CD6823F4006343EAA9
:1041F00005234D6922F4405242EA05128D6923F4E9
:10420000806342EA05124260C4614968C163036287
:1042100030BD0000002C014030B5026A22F480520B
:104220000262046A4268C3690D6823F4E64343EA04
:1042300005238D6824F4005444EA0534064DA84251
:1042400004D14D6922F4804242EA85124260C36182
:1042500049680164046230BD002C014070B5044619
:1042600000680169E26821F440511143016121694C
:10427000A0680843616908432168CA6841F20C6379
:104280009A430243CA6020684169A26921F44071DF
:10429000114341611E492068884202D1FDF734FD77
:1042A00001E0FDF721FD00EBC00101EB00126068A9
:1042B00064218000B2FBF0F3B3FBF1F36FF018065A
:1042C0007343B2FBF0F5B2FBF0F605EB8305322346
:1042D00003EB0515B5FBF1F5B6FBF1F605F0F005BE
:1042E00005EB0615B2FBF0F6B2FBF0F0B0FBF1F017
:1042F0006FF01802504306EB800003EB0010B0FB98
:10430000F1F0216800F00F002844886070BD0000C3
:10431000003801402DE9F041984617460E46044604
:10432000069D1DE0681C1BD02DB1FDF721F8A0EB08
:104330000800A84214D92068C16821F4D071C16076
:104340002068416921F001014161202084F83D008D
:1043500084F83E00002084F83C000320BDE8F08192
:104360002068006836EA000004D00020B842D9D0A6
:104370000020F3E70120F9E7FEE7490050EAC120F9
:1043800018BF04204A0D18BF40F0010040F2FF7230
:10439000B2EB515F08BF40F00200012808BF0520C2
:1043A00070474100080218BF04200A0E18BF40F0F1
:1043B00001004FF07F4232EA010108BF40F00200E5
:1043C000012808BF052070470907090E002804DBF3
:1043D00000F1E02080F80014704700F00F0000F1B9
:1043E000E02080F8141D70472DE9F0414F1E00EBCE
:1043F000C7010446D1E9000115461E4637F0060202
:104400000DD02A463346FCF72CF87F1E04EBC70379
:10441000D3E90023FBF77EFF37F00602F1D1022F2C
:1044200025D0042F13D0062F18BFBDE8F0812A46EF
:104430003346FCF716F8D4E90A23FBF76BFF2A464C
:104440003346FCF70EF8D4E90823FBF763FF2A464E
:104450003346FCF706F8D4E90623FBF75BFF2A4650
:104460003346FBF7FEFFD4E90423FBF753FF2A464C
:104470003346FBF7F6FFD4E90223FBF74BFF2A464E
:104480003346FBF7EEFFD4E90023BDE8F041FBF72C
:1044900041BF0122FCF7C6B8002213461046114660
:1044A000FCF751B8024A00201107FCF7BBB8000026
:1044B00001FDFFFF0121FBF721BF00210846FBF7AB
:1044C000DFBE6FF05E010807FBF718BF2DE9F04D66
:1044D0000D4614464FF07F41B1EB440F9EBF4FF0A5
:1044E000FF312960BDE8F08D4FF0004040EA042123
:1044F000C4F3C750783810F01F024A4B4FEA601CD3
:10450000C2F120067B44C4F3C750A0F178004FEA03
:10451000601003EB800053F82C3008BFD0E901C6CF
:1045200012D0D0F804C093402CFA06F73B438768BA
:104530000CFA02FC27FA06F8C06807FA02F2F0400B
:104540004CEA080C42EA0006A3FB0132ACFB01C0B6
:10455000A6FB016101EB0C068E4234BF4FF0010C4B
:104560004FF0000CC1186144BCF1000F02D0814231
:1045700002D903E0814201D2012000E00020104472
:1045800000F120024FEA92188006CA0C40EA42303D
:104590004F03C5F80080FCF75CF882463846FCF70C
:1045A00061F86FF01201FBF7A9FE07463046FCF7F1
:1045B00059F86FF02501FBF7A1FE834639465046B6
:1045C000FBF7D4FD5946FBF7D1FD00F500666FF30C
:1045D0000B0651463046FBF71BFE3946FBF718FE2B
:1045E0005946FBF718FE1049FBF718FE07460F491E
:1045F0003046FBF713FE3946FBF7B8FD07460C497A
:104600003046FBF70BFE3946FBF7B0FD14F0004FC8
:1046100008BFBDE8F08DC8F1805180F000402960EE
:10462000BDE8F08D280C0000DB0FC92F22AAFD2960
:104630000000C92F02E008C8121F08C1002AFAD1E1
:1046400070477047002001E001C1121F002AFBD112
:104650007047000001490860704700001C050020F9
:104660002DE9F04D8D4F21F0004A86B005460C46ED
:10467000BA452ADBAAEB070028430AD088488245BE
:1046800001DC1AD1CDB106B02846BDE8F04DFFF7E8
:1046900000BF844A844B2846FBF7E3FE07460E46DC
:1046A000824A834B28462146FBF7DBFE06B03A469A
:1046B0003346BDE8F04DFBF72DBE0120FFF7CAFFE2
:1046C00006B0BDE8F04DFFF7E7BE7A48824542DA12
:1046D000BAF1795F0BDA2846FFF74FFE042808BFCE
:1046E000FFF7E0FE284606B02146BDE8F08D2A46D9
:1046F0000B461046FBF7B5FE834602466E480E4653
:104700000B4606217844FFF76FFE5A463346FBF707
:10471000A8FE804669488A465A46334604217844B2
:10472000FFF762FE5A463346FBF79BFE00223B46EC
:10473000FBF7F0FD02460B4640465146FBF703FFF0
:104740002A462346FBF78DFE06B02A462346BDE8DF
:10475000F04DFBF7DFBD284624F0004100223D4626
:104760003B46FBF77BFE4FF0FF32FBF75BFF064655
:10477000024653480F460B4606217844FFF734FEA5
:1047800032463B46FBF76DFECDE900014D4832460F
:104790003B4604217844FFF727FE32463B46FBF7B1
:1047A00060FE00222B46FBF7B5FD834602913046A2
:1047B000394600F087FB804643480D46504517DCDC
:1047C000DDE900015A46029BFBF7BDFE42462B463F
:1047D000FBF747FE42462B46FBF79CFD0122FBF709
:1047E00021FF304A304BFBF736FE304A304B4CE06D
:1047F0004FF0000A52460B464046FBF78BFDCDE9D1
:10480000031052462B4610461946FBF72AFE324645
:104810003B46FBF723FEDDE90332FBF794FE064639
:104820000F46DDE900015A46029BFBF78CFE8346EA
:104830000091012230463946FBF7F4FE194A1A4B23
:10484000FBF70CFE06460F46012240462946FBF7C1
:10485000E9FE5A46009BFBF704FE32463B46FBF757
:10486000FAFD06460F46012250462946FBF7DAFEBE
:104870000E4DDFF858802A464346FBF7EFFD3246DF
:104880003B46FBF7EBFD2A464346FBF7E7FD002CD2
:10489000D8BF81F0004106B0BDE8F08D0000F03FC8
:1048A0000000F07F075C143326A6913C182D445479
:1048B000FB21F93F0000E03FD8090000EE090000AD
:1048C00062090000780900003333EF3FFB21E93F24
:1048D0002DE9F843044602464F486946B0EB420FC3
:1048E00009D94FF0E640B0EB420F94BF00204FF0E3
:1048F000FF30009030E0494B22F00040834271D9F4
:1049000047492046FBF78AFCFBF776FF8046FBF71A
:10491000BFFE00F00300009042494046FBF77EFCDA
:10492000054641494046FBF779FC06463F4940466B
:10493000FBF774FC07463E494046FBF76FFC2146F7
:10494000FBF769FC3946FBF763FC3146FBF760FC7B
:104950002946FBF75DFC04462546009C002C45DB00
:10496000294614F0010F08461CD0FBF757FC0646F9
:104970003049FBF753FC3049FBF74DFC3146FBF760
:104980004DFC2E49FBF7F2FB3146FBF747FC29466D
:10499000FBF744FC2946FBF7E9FB14F0020F1CD09F
:1049A000BDE8F883FBF73AFC05462549FBF736FCE2
:1049B0002449FBF7DBFB2946FBF730FC2249FBF7D8
:1049C000D5FB2946FBF72AFC4FF07E51FBF7CEFBC7
:1049D00014F0020F08BFBDE8F88380F00040BDE886
:1049E000F883FFE71046FFF771FDB4E76800B0F108
:1049F0007F4F3CBF4FF07E50BDE8F88307D14FF0AA
:104A00000100FFF727FEBDE8F843FFF756BD284633
:104A1000BDE8F843FFF74EBDB61F927E490E4946EA
:104A200083F9223F1A61342C0020A23300A0FD3903
:104A30000000C93F336D4C39DA82083CA0AA2ABE77
:104A4000B93AB2BACA9F2A3DDDFFFFBE2DE9F05F39
:104A50000D46064610F0FF4F02D115F0FF4044D03E
:104A6000304600F06DF98346284600F069F9824629
:104A700001465846FBF754FE02D25146584601E023
:104A800059465046FBF7FCFB2749DFF8A0908842C7
:104A90001FDB0821FBF732FC4FF07C51FBF7B8FB22
:104AA0000746FBF7F5FD0446FBF7D3FD3946FBF758
:104AB000B2FB1F4A804602EB840052F82410406883
:104AC0000F46FBF7A5FB4146FBF7A8FB3946FBF772
:104AD0004DFB044659465046FBF72CFE494614D27E
:104AE0008D4207D24E4502D22046BDE8F09F84F0A9
:104AF0000040FAE70F484E4501D2214601E0014649
:104B00002046BDE8F05FFBF783BB8E4203D20A4824
:104B10004D45F2D302E009484D45EED22146BDE8AD
:104B2000F05FFBF723BB00008180803B00008080AA
:104B300008000020DB0F4940DB0FC93FDB0FC9BF76
:104B40001FB500228DF80C20FF24012303AA8DE855
:104B50001C000A4601460348FCF7D4FC9DF80C00F3
:104B600004B010BD100900203EB5FF248DE81C00E4
:104B70000A46014601230248FCF7C4FC3EBD000082
:104B8000100900201FB5FF248DF80C20012303AA73
:104B90008DE81C000A4601460148FCF7DBFD1FBDFD
:104BA000100900202DE9F0411D460C46174613461A
:104BB00001462A462046FEF7B9FA3C68B4F5000FD4
:104BC00001DA84F0004484F0004006462946FBF7F1
:104BD000B1FD01D2344605E021462846FBF7AAFD87
:104BE00000D32C467C60BDE8F0810000FCF78AFE13
:104BF000FFF7B4F9FEF7F8FBFEF7CEFB19481849AA
:104C0000002401604FF4E131C0E901140C21C460BB
:104C1000C0E904418461C461FDF72CFD08B172B69E
:104C2000FEE710481049F43801601049C0E901144A
:104C30004FF48041C0E9034144618461C46104626E
:104C4000FCF79CFB08B172B6FEE7FEF73DFCFEF7F1
:104C500019FCFFF7C1F900BF00F014FAFCE70000EF
:104C600000380140040A002000540040A0860100E2
:104C700010B56420FCF76CFA00F025F800226B21D7
:104C8000D320FFF77FFF07221921D320FFF77AFFF8
:104C900004221A21D320FFF775FF18221B21D320ED
:104CA000FFF770FF10221C21D320FFF76BFF0022BB
:104CB0006A21D320FFF766FF02223721BDE81040AA
:104CC000D320FFF75FBF10B500226B21D320FFF781
:104CD00059FF07221921D320FFF754FF7521D32054
:104CE000FFF72EFF0728F9D110BD00001CB50623E1
:104CF0006A463B21D320FFF737FFBDF800000F4C79
:104D000040BA06232080BDF802006A4640BA60809F
:104D1000BDF80400432140BAA080D320FFF724FF50
:104D2000BDF8000040BAA082BDF8020040BAE0829F
:104D3000BDF8040040BA20831CBD000070070020AD
:104D400010F1FF4F01D380F0004070472DE9F04192
:104D500004464FF07F564FF0FF31FBF7CFFA054680
:104D60001148A0EB640739462846FBF757FA394645
:104D7000FBF754FA3146FBF74EFA3946FBF74EFA89
:104D8000074601462846FBF749FA3946FBF746FA3B
:104D90003146FBF740FA3946FBF740FA0146204618
:104DA000BDE8F041FBF73ABADF59375F2DE9F05F14
:104DB00014468946FBF764FA01462748FBF760FA78
:104DC00000F0A6F880460146FBF728FA8346DFF894
:104DD0008CA05D465046FFF77BFD0121FBF78EFA64
:104DE0004146FBF71BFA4FF07E563146FBF7BEF902
:104DF0002946FBF7BBF90746B9F5000F2ADB5846F1
:104E00003946FBF73DFA05460121E060FBF776FAEB
:104E10002660C4E9040558463146FBF7F9F901213B
:104E2000FBF76CFA3946FBF72BFA60605D4650469B
:104E3000FFF74EFD0121FBF761FA4146FBF7EEF962
:104E40003146FBF7E8F92946FBF790F93946FBF7BD
:104E500017FAA060BDE8F09FDB0F4940DB0F493F28
:104E600070B5154C134D6068A06021686160A86939
:104E70002060FBF75FFC06D2A1682068FBF75AFCB4
:104E800008D2206807E0D4E90101FBF753FC01D206
:104E9000606800E0A0680949FBF7C0F904460849CA
:104EA0002868FBF7BBF92146FBF760F9A861286089
:104EB00070BD000030040020AC080020CDCCCC3EFA
:104EC0009A99193F2DE9F04106460F46FBF722FD5E
:104ED000041E0D4618BF0120284320F00040C0F1F9
:104EE0007F6000F1E040C00F0ED0301C18BF0120E1
:104EF000384320F00040C0F17F6000F1E040C00F77
:104F000004BF0120FFF7A6FB20462946BDE8F0813B
:104F10002DE9F843044602464C486946B0EB420F7F
:104F200009D94FF0E640B0EB420F94BF00204FF09C
:104F3000FF30009030E0464B22F00040834265D9BC
:104F400044492046FBF76AF9FBF756FC8046FBF71D
:104F50009FFB00F0030000903F494046FBF75EF9DD
:104F600005463E494046FBF759F906463C4940464E
:104F7000FBF754F907463B494046FBF74FF92146FA
:104F8000FBF749F93946FBF743F93146FBF740F99E
:104F90002946FBF73DF90446009D002D3ADB2146EA
:104FA0000846FBF73BF906462F49FBF737F92F492F
:104FB000FBF7DCF83146FBF731F92D49FBF7D6F862
:104FC0003146FBF72BF92B49FBF7D0F83146FBF7BD
:104FD00025F92949FBF7CAF83146FBF71FF927499C
:104FE000FBF7C4F83146FBF719F92146FBF716F930
:104FF0002146FBF7BBF815F0010F08BFBDE8F883A9
:105000000146BDE8F8431E48FBF73AB91046FFF7E2
:105010005DFAC0E76000B0F17F4F09D22046FFF78C
:10502000C0F9042808BFFFF74CFA2046BDE8F88312
:1050300006D10120FFF70EFBBDE8F843FFF73DBAAC
:105040002046BDE8F843FFF735BA0000B61F927E50
:10505000490E494683F9223F1A61342C0020A233BD
:1050600000A0FD390000C93FBBE9223C0C6D063BA6
:105070008A76CE3CACB5593D35A1083E29AAAA3E58
:10508000000080BF2DE9F041DFF834800D4D002491
:10509000D8F8007004EB440105EB8106B068726833
:1050A000381A904204D355F82110C0B28847B7602F
:1050B000641CE4B2052CEBD30020BDE8F0810000B5
:1050C000140500205C040020000000000000000027
:1050D000010203040607080900000000010203049E
:1050E000555555555555C53F7D6FEB0312D6D4BF69
:1050F0005544880E55C1C93F3B8F68B52882A4BF6F
:1051000088B20175E0EF493F09F7FD0DE13D023F2F
:105110004B2D8A1C273A03C0C88A599CE52A0040B7
:1051200059018D1B6C06E6BF82922EB1C5B8B33F04
:10513000000000006E83F9A22915444ED15727FCC8
:10514000C0DD34F5999562DB4190433CAB6351FE81
:10515000705100080000002020050000B60900087A
:10516000B855000820050020380900004446000812
:1051700011A201175680803BD37F10183C77BE40A8
:105180003CCF7D803C5B9BA03CA6B7C03C6ED2E090
:105190003CB77500FF003D3581103D918B203DAB44
:1051A00094303D609C403D92A2503D25A7603DF16A
:1051B000A9703D6F55803DE354883D4753903D8C29
:1051C00050983D9F4CA03D7247A83DF740B03D1B15
:1051D00039B83DD22FC03D0C25C83DB218D03DC6D0
:1051E0000AD83D2DFBDF3DD9E9E73DB0D6EF3DBE06
:1051F000C1F73DDBAAFF3D04C9033E95BB073E2036
:10520000AD0B3E979D0F3EF58C133E397B173E56F6
:10521000681B3E3E541F3EF83E233E7728273EB48F
:10522000102B3EA1F72E3E45DD323E93C1363E7D2A
:10523000A43A3E0A863E3E2766423ED844463E1287
:10524000224A3EC7FD4D3EFED7513EAFB0553EC649
:1052500087593E4B5D5D3E3731613E7C03653E1AAA
:10526000D4683E0AA36C3E4770703EC83B743E88CB
:1052700005783E86CD7B3EB5937F3E0EAC813E5396
:105280008D833EAE6D853E164D873E8D2B893E0F3C
:10529000098B3E9900FF00E58C3E2BC18E3EC19BE1
:1052A000903E5475923EE94D943E7B25963E07FC18
:1052B000973E8BD1993E02A69B3E6F799D3ECD4B8A
:1052C0009F3E1C1DA13E57EDA23E7FBCA43E8D8A91
:1052D000A63E8457A83E6223AA3E23EEAB3EC2B749
:1052E000AD3E4580AF3EA447B13EE20DB33EF9D29C
:1052F000B43EE996B63EB159B83E4F1BBA3EC2DB4A
:10530000BB3E079BBD3E1E59BF3E0416C13EBCD1ED
:10531000C23E3F8CC43E8E45C63EA4FDC73E89B406
:10532000C93E336ACB3EA41ECD3EDAD1CE3ED583F4
:10533000D03E9434D23E18E4D33E5A92D53E603FDC
:10534000D73E21EBD83EA395DA3EE33EDC3EE1E6D4
:10535000DD3E9A8DDF3E0D33E13E3AD7E23E227AC2
:10536000E43EC51BE63E1BBCE73E2F5BE93EF7F87B
:10537000EA3E7695EC3EA930EE3E93CAEF3E3563A9
:10538000F13E86FAF23E8F90F43E4925F63EB9B8DA
:10539000F73EDA4AF910143EAFDBFA3E386BFC3EBA
:1053A00071F9FD3E5A86FF3EFC8800FF003F234E08
:1053B000013FA212023F7BD6023FAC99033F365C0D
:1053C000043F171E053F51DF053FE39F063FCE5FB9
:1053D000073F121F083FADDD083FA29B093FEF5872
:1053E0000A3F94150B3F93D10B3FE98C0C3F9A4732
:1053F0000D3FA2010E3F03BB0E3FBF730F3FD32BE8
:10540000103F41E3103F089A113F2A50123FA40574
:10541000133F79BA133FA86E143F3322153F18D5B6
:10542000153F5787163FF138173FE7E9173F389A7E
:10543000183FE749193FEFF8193F55A71A3F18558C
:105440001B3F37021C3FB3AE1C3F8E5A1D3FC405A5
:105450001E3F5AB01E3F4E5A1F3FA103203F52AC81
:10546000203F6354213FD3FB213FA4A2223FD548D4
:10547000233F67EE233F5A93243FAD37253F63DB3D
:10548000253F7A7E263FF420273FD2C2273F136470
:10549000283FB704293FBFA4293F2C442A3FFEE2FE
:1054A0002A3F33812B3FD11E2C3FD238CFBB2C3F1C
:1054B0003C582D3F0CF42D3F438F2E3FE1292F3FC9
:1054C000E9C32F3F595D303F33F6303F758E313F92
:1054D0002126323F39BD323FBB53333FA9E9333F29
:1054E000027F343FC713353FF9A7353F993B363F1D
:1054F000A6CE363F2161373F0BF3373F6484383FF8
:105500002E15393F65A5393F0F353A3F2AC43A3F3A
:10551000B4523B3FB3E03B3F226E3C3F06FB3C3F77
:105520005D873D3F26133E3F679E3E3F1A293F3F22
:1055300044B33F3FE43C403FF9C5403F864E413FC6
:1055400089D6413F065E423FFAE4423F676B433FE4
:105550004FF1433FB076443F8CFB443FE27F453FF1
:10556000B403463F0187463FCB09473F138C473F73
:10557000D70D483F198F483FDD0F4904416009CDE1
:10558000CCCC3D0AD7233CEB7A44100120B2011366
:1055900081317308021351327308041321337308E5
:1055A000081A350C72101A390CD2203A809401680E
:0855B00029BC698C115324F49D
:04000005080000ED02
:00000001FF
